:020000040800F2
:20000000382205243903000881D60008D1AC000869D60008B106000859DA000800000000F4
:200020000000000000000000000000004B0300084D030008000000004F030008C1D9000816
:200040005303000853030008530300085303000853030008530300085303000853030008B0
:20006000530300085303000853030008530300085303000853030008F90C000853030008E1
:20008000530300085303000853030008530300085303000853030008530300085303000870
:2000A000530300085303000853030008530300085303000853030008530300085303000850
:2000C000530300085303000853030008530300085303000853030008530300085303000830
:2000E000211200085303000800000000530300085303000853030008530300085303000891
:200100005303000853030008530300085303000853030008530300085303000853030008EF
:200120005303000853030008530300085303000853030008530300085303000853030008CF
:2001400053030008530300080000000000000000530300085303000853030008530300086B
:200160005303000853030008530300085303000853030008530300085303000800000000ED
:2001800053030008530300085303000853030008530300085303000853030008530300086F
:2001A000C9BA0008B1BA0008110D0008530300085303000853030008530300085303000845
:2001C00053030008530300085303000853030008530300085303000853030008530300082F
:2001E00053030008530300085303000853030008530300085303000853030008530300080F
:200200005303000853030008530300085303000853030008530300085303000853030008EE
:2002200053030008D9AE000809BC0008091200085303000853030008530300085303000869
:200240005303000853030008530300085303000853030008530300085303000853030008AE
:2002600053030008530300085303000853030008530300085303000853030008530300088E
:2002800053030008530300085303000800000000530300085303000800F002F800F03CF87A
:2002A0000AA090E8000C82448344AAF10107DA4501D100F031F8AFF2090EBAE80F0013F06A
:2002C000010F18BFFB1A43F00103184710E0000040E00000103A24BF78C878C1FAD85207AB
:2002E00024BF30C830C144BF04680C60704700000023002400250026103A28BF78C1FBD8D1
:20030000520728BF30C148BF0B6070471FB50DF091FD1FBD10B510BDDFF80CD0FFF7F6FF18
:200320000DF0BAFB00F091F90000022003B4FFF7F1FF03BC00F092F90948804709480047E8
:20034000FEE7FEE7FEE7FEE7FEE7FEE7FEE7FEE7FEE7FEE704480549054A064B70470000BA
:2003600031DA00089902000838A204243822052438E2042438E2042410B5431C02E010F8B0
:20038000011B71B18107FAD14FF0013202C88C1A8C4314EAC211F9D0C01A0A0603D0C01EE6
:2003A00010BDC01A10BD0A0401D0801E10BD0902FCD0401E10BD032A40F2308010F0030C5F
:2003C00000F0158011F8013BBCF1020F624498BF11F801CB00F8013B38BF11F8013BA2F1C0
:2003E000040298BF00F801CB38BF00F8013B11F0030300F06780083AC0F0088051F8043BD1
:20040000083A51F804CBA0E80810F5E7121D5CBF51F8043B40F8043BAFF30080D20724BFDF
:2004200011F8013B11F801CB48BF11F8012B24BF00F8013B00F801CB48BF00F8012B7047A9
:20044000431A28BF9A427FF6B6AF10441144032A40F2268010F0030F1EBF11F8013D521E4E
:2004600000F8013D10F0030F7FF4F6AF11F0030300F09F80083AC0F00B8051F8043D083ABD
:2004800051F804CD40F8043D40F804CDFFF7F3BF121D5CBF51F8043D40F8043DAFF30080A9
:2004A000D20724BF11F8013D11F801CD48BF11F8012C24BF00F8013D00F801CD48BF00F847
:2004C000012C704710B5203AC0F00B80B1E81850A0E81850B1E81850A0E81850203ABFF4EF
:2004E000F5AF5FEA027C24BFB1E81850A0E8185044BF18C918C0BDE810405FEA827C24BFE2
:2005000051F8043B40F8043B08BF7047D20728BF31F8023B48BF11F8012B28BF20F8023BC0
:2005200048BF00F8012B704702F0FF0343EA032242EA024200F069B84FF0000200B51346C3
:2005400094469646203922BFA0E80C50A0E80C50B1F12001BFF4F7AF090728BFA0E80C50EC
:2005600048BF0CC05DF804EB890028BF40F8042B08BF704748BF20F8022B11F0804F18BF1C
:2005800000F8012B7047704770477047431A28BF9A427FF697AF1044114410F0030F1EBFE8
:2005A00011F8013D521E00F8013D10F0030F7FF4F6AF103AC0F00A8010B531E9185020E950
:2005C0001850103ABFF4F9AFBDE81040530724BF31E9081020E9081044BF51F8043D40F8C4
:2005E000043D12F0030F08BF7047D20728BF31F8023D48BF11F8012C28BF20F8023D48BF7E
:2006000000F8012C70474FF000020429C0F0128010F0030C3FF492AFCCF1040CBCF1020F40
:2006200018BF00F8012BA8BF20F8022BA1EB0C01FFF784BF5FEAC17C24BF00F8012B00F8BC
:20064000012B48BF00F8012B704710B50446AFF300802046BDE81040FFF768BE0149182062
:20066000ABBEFEE726000200704700000000000040F260000121C2F20040C16070470000CD
:2006800040F26000C2F200400169D0E90D2301324263002903F1010282631CBF013901612D
:2006A000416900291CBF0139416170470000000080B54EF2B4206521C0F6000000BE0AF0BC
:2006C0007FFA80BD0000000080B541F2301C42F6084EC2F2004CC0F2010E42F60C43DCF806
:2006E0000020C0F2010352F80E100131032988BF00210A44D25C0270DCF8000040F80E10DE
:2007000080BD00000000000041F2301043F24041C2F20040C0F201010068405C7047000010
:2007200041F2301042F60441C2F20040C0F201010068421840585168401A18BF0120704705
:200740002DE9F04141F2301542F61448C2F20045C0F2010842F618472A68C0F2010752F865
:2007600008305E1C032E88BF002602EBC603DC19DF59022F6368036009D102F594304FF40F
:20078000006200F5876308461946FFF714FEF8B2296841F80860BDE8F08100000000000071
:2007A0002DE9F04F83B041F2301444F25862C2F200448146216888184AF6C401FFF7BCFEAD
:2007C0000CF012FA002878D048460CF061F9054600286AD00DF1040A04F1100600274FF093
:2007E0000008009605E000BFC3460137D846AF425BD04846394652460CF05AF80028F3D15D
:2008000002984FF4FA7132460CF006F90028EBD12146A446404631F8102F6FF39F227AB1AC
:20082000DCF8000045F2D82143180099464600BF31F8024B701C013A23F816400646F7D1B3
:200840000A8882B1DCF8003045F2D82664460239334400BF23F81020461C8A880231304617
:20086000002AF7D101E006466446206845F2D823002206F1010B00EB460100EBC700CA52D0
:2008800044F25863C2180199C15044F61F608345C2F8048098BFB7F5C87F04D34FF43F710F
:2008A00008A00AF08DF9009E9FE720684EF618714550012003B0BDE8F08F002003B0BDE892
:2008C000F08F00BF5458540041F2301042F61041C2F20040C0F20101006842184058516823
:2008E000401A18BF0120704780B541F2301C4EF61C73C2F2004C4EF6247EDCF80020D15865
:200900000131032988BF00210A4402F80E00DCF80000C15080BD000010B541F2301C4EF611
:200920002C7EC2F2004C4EF63473DCF8002052F80E100131032988BF002102EBC102D41864
:20094000D05000206060DCF8000040F80E1010BD80B541F2301C40F2263EC2F2004CDCF882
:2009600000C000FB0ECC4EF2E01EC0F6000E5EF820002CF8080F0CEB8200ACF80210029965
:20098000C380018180BD000041F2301240F22633C2F20042126800FB03208181704700000E
:2009A00041F2301043F24841C2F20040C0F20101012200684250704741F2301043F244415D
:2009C000C2F20040C0F20101012200684250704741F2301143F25442C2F20041C0F20102B2
:2009E000096888507047000041F2301143F27042C2F20041C0F201020968885070470000F2
:200A000041F2301143F27442C2F20041C0F2010209688850704700002DE9F04141F2301C07
:200A200042F6B82EC2F2004CC0F2010EDCF8003053F80E100131072988BF002101EBC102F1
:200A400003EB820242F6BC23C0F20103D418271D52F8038062691834E8CF426100F10802EE
:200A6000E0E80683E0C21CCC1CC0DCF8000040F80E10BDE8F081000010B541F2301C42F603
:200A8000E03EC2F2004CC0F2010E42F6E433DCF80020C0F2010352F80E100131032988BF71
:200AA000002102EBC102D418D2586368C0E90023DCF8000040F80E1010BD000000000000C1
:200AC00041F2301142F6E032C2F20041C0F2010209688A580132032A88BF002201EBC201E3
:200AE00042F6E432C0F201028B1889585A68C0E900127047000000002DE9F04141F2301C75
:200B00004EF6587EC2F2004CDCF8003053F80E100131072988BF002101EBC10203EB820263
:200B20004EF65C73D418271D52F8038062691834E8CF426100F10802E0E80683E0C21CCC5E
:200B40001CC0DCF8000040F80E10BDE8F081000041F230110B22C2F200410968083100BF7A
:200B60000B88834205D0013A01F22631F8D1002070474888704700002DE9F04141F2301CD6
:200B80004FF2800EC2F2004CDCF8003053F80E1001318A084A2A88BF002101EBC10203EBDC
:200BA00082024FF28403D418271D52F8038062691834E8CF426100F10802E0E80683E0C28D
:200BC0001CCC1CC0DCF8000040F80E10BDE8F081B0B541F230114FF28002C2F2004100F18F
:200BE000080709688A58013293084A2B88BF002202EBC20201EB82014FF284028B1803F169
:200C00000C0551F802C0D3E901E1183334CD36C7E0E806CE0ECB0EC0B0BD00000000000021
:200C2000002A08BF704770B541F2301341F6B42CC2F20043C0F2010CD3F800E00EEB4003BD
:200C400033F80C309BB1023A012400250130B5EBD02F18BF002022F8023F0EEB400636F8CC
:200C60000C301BB18C4204F10104EFD9023200201080BDE87040704741F2301042F6B4216C
:200C8000C2F20040C0F201010068421840585168401A18BF0120704741F2301042F6DC31D8
:200CA000C2F20040C0F201010068421840585168401A18BF0120704741F230104EF65471F4
:200CC000C2F200400068421840585168401A18BF012070470000000041F230104FF27C01D3
:200CE000C2F200400068421840585168401A18BF012070470000000080B541F64810C2F26C
:200D0000004000F5797002F09FFA80BD0000000080B54AF23020C2F2044001680131016038
:200D200041F64810C2F2004000F23C5001F0D0FB80BD000000000000B0B5D0F800C0049C2C
:200D4000D0F804E0DCF8445044EA034305F04044BEF5802F43EA0403CCF84430CCF83C20A4
:200D600014D0BEF5403F14D1806801F47F0301F47F4203285FFA81FE0ED8DFE800F0390288
:200D80001B2921F07F41CCF83810B0BDCCF81410B0BDCCF80C10B0BD6FF0FF0000EA133098
:200DA0004FF4704303EA1141F02341EA1E1103EA12221BE04FF478416FF01F0001EA1321DC
:200DC00000EA521041EADE010144CCF83810B0BD4FF4F84000EA53204FF4004303EA114162
:200DE0006FF01F0341EADE0103EA921208448118CCF83810B0BD000040F20F420168C4F2D7
:200E00000202914210DC6F22C4F20202914220DC3F22C4F20202914236DC1022C4F2020209
:200E2000914254D028224EE040F26F42C4F2020291421ADC40F23F42C4F2020291422ADC97
:200E400040F21042C4F20202914240D040F2284239E09F22C4F20202914225DC7022C4F225
:200E60000202914233D088222DE040F29F42C4F2020291421FDC40F27042C4F202029142D5
:200E800025D040F288421EE04022C4F2020291421DD0582217E040F24042C4F202029142D5
:200EA00015D040F258420EE0A022C4F2020291420DD0B82207E040F2B842C4F202029142ED
:200EC00005D040F2A042C4F2020291421AD1D0F800C06FF00F024AF6AB2352FA8CF2CAF621
:200EE000AA23A2FB033109A35F2AC1F302115B5C40F2FF312CEA0101C36588BF043181659D
:200F000008467047016821F0FF01F8E700061016000610160000000070B540F26F44D0F849
:200F200000E0C4F20204D0F858C0A64519DC9F25C4F20205AE4531DC5725C4F20205AE45A8
:200F400056DC1025C4F20205AE4500F092802825C4F20205AE4500F08C804025C4F202055D
:200F600084E045F22F45C5F60205AE452BDC40F2B745C4F20205AE4548DC40F27045C4F207
:200F80000205AE4575D040F28845C4F20205AE456FD040F2A045C4F2020567E040F227456B
:200FA000C4F20205AE4540DCA025C4F20205AE455FD0B825C4F20205AE455AD040F2104583
:200FC000C4F2020552E045F26B45C5F60205AE453CDC45F23045C5F60205AE4549D045F2BD
:200FE0004445C5F60205AE4543D045F258453BE05825C4F20205AE453BD07025C4F2020527
:20100000AE4536D08825C4F202052FE040F2B845C4F20205AE452CD045F20845C5F602053D
:20102000AE4526D045F21C451EE040F22845C4F20205AE451DD040F24045C4F20205AE458E
:2010400017D040F25845C4F202050FE045F26C45C5F60205AE450CD045F29445C5F60205E3
:20106000AE4506D045F28045C5F60205AE4540F0C980456EC66E002E866E6E601CBFD0E912
:201080001C566E60A64515DC9F24C4F20204A6452BDC5724C4F20204A6454EDC1024C4F28D
:2010A0000204A64576D02824C4F20204A64571D040246BE045F22F44C5F60204A64527DCBD
:2010C00040F2B744C4F20204A64542DC40F27044C4F20204A6455DD040F28844C4F20204AA
:2010E000A64557D040F2A04450E040F22744C4F20204A6453CDCA024C4F20204A64549D0B8
:20110000B824C4F20204A64544D040F210443DE045F26B44C5F60204A6454FDC45F230442D
:20112000C5F60204A6455BD045F24444C5F60204A64555D045F258444EE05824C4F202040F
:20114000A64527D07024C4F20204A64522D088241CE040F2B844C4F20204A6451AD045F2E2
:201160000844C5F60204A6453AD045F21C4433E040F22844C4F20204A6450BD040F24044ED
:20118000C4F20204A64505D040F25844C4F20204A64537D104683F258668C06D00F01F005C
:2011A000402E05FA00F0CCF80800206820F480202060636021D0A160E26070BD45F26C443F
:2011C000C5F60204A6450BD045F28044C5F60204A64505D045F29444C5F60204A64511D16F
:2011E0000468C66D806806F01F060125402805FA06F6CCF80460636002D1A260E16070BD96
:20120000A160E26070BD000080B541F64810C2F2004000F5047003F023FE80BD00000000EC
:2012200080B588204FF40041C5F60000016041F64810C2F20040D0F8401201B180BDD0F8DD
:2012400038120A220131C0F840220429C0F83812F4D3D0F8341200220029C0F8382208BFA4
:2012600080BD884780BD00000246C068D1E900C3D1E902014CEA032343EA0043002043EA62
:201280000161D1607047000002468068D1E900C3D1E902014CEA032343EA0043002043EA81
:2012A000016191607047000010B540F2811301F1040E02460068CFF6F07300EA030C086953
:2012C0009EE8184043EA0C0323434C6943EA0E038969184340EA442040EA4131002041F0D3
:2012E0000801116010BD000080B50A68002A026822D022F4F84C4A6AD1E9073E43EA0C0331
:2013000043EA0E031A430260426847F6FF7322EA030CCA68D1E9013E43EA0C03D1F810C05C
:2013200043EA0E031A434B6942EA0C0289691A4311434160002080BD47F6FF7322EA030CB9
:20134000CA68D1E9013E43EA0C03D1F810C043EA0E031A434B6942EA0C02D1F818C01A4306
:20136000CB6942EA0C02D1F820C01A43496A42EA0C0211430160002080BD000000000000FA
:201380000246406943F6FE7320EA0303002043EA410151617047000010B5024600696FF3D2
:2013A00015006FF01F04D1E900ECD1E9023140EA0E0004EB431340EA0C000343002043EABD
:2013C0004121116110BD00002DE9F041002A826835D040F6FF734FF20006CFF60F73CFF611
:2013E000FF761A40CB684F696FF00F0406EB03330026CFF6F0761A4306EB07573A4382603E
:20140000C2688E68D1E9003702F07042013B04EB07176FF0FF040D6904EB062600241A435A
:20142000CFF6FF7489693A4304EB0545013932432A4342EA0161C1600020BDE8F08101F1D9
:20144000080602F0704CD1E900E278CE6FF00F074FF2000807EB02126FF0FF0707EB0323AD
:20146000AEF1010747EA0C07CFF6FF7840F2000E3A4308EB0434CFF6FF7E00271A438969A5
:201480000EEB0545CFF6F077224307EB065301392A431A4342EA016181600020BDE8F08184
:2014A0002DE9F04F87B0119F002F00F0CE800D46014602201F461646109C00F00DFB80469C
:2014C000002040F25632294600F0FEFA0546002040F25632394600F0F7FA814600204FF42C
:2014E000F072314600F0F0FA064600204FF4F072214600F0E9FAA9EB050101230FFA81FAAC
:20150000044680B2BAF1000FB2B201EBEA3148BF4FF0FF33801A012202935FEA004B48BFC5
:201520004FF0FF3281EAEA3701B20392024648BF4A420497390418BF5FEA024114D11199C2
:2015400000220844ADF81A0005A80023002100914146ADF81450ADF81660ADF818A001F0E3
:20156000ABF807B0BDE8F08F0498019200B2B0EB214F36DA4FF0000905AFA9EB614A01E0D5
:20158000002862D1BBF1000F02D430B2A04205DDBBF1FF3FDCBF30B2844256DC1198ADF80C
:2015A00018000120ADF81A000022002338464146ADF81450ADF81660CDF8009001F07CF80B
:2015C0000028DDD10499039A8A4416440FFA8AF100290299C8BF0D440199C8BFAAEB010AF2
:2015E000CEE7002705ACA7EB600B00E068BBBAF1000F02D428B2484505DDBAF1FF3FDCBF01
:2016000028B2814521DC0120ADF818001198ADF81A000022002320464146ADF81450ADF807
:201620001660009701F048F80028DFD10199029A8B4415440FFA8BF100290399C8BF0E4413
:201640000499C8BFABEB010BD0E707B0BDE8F08F2DE9F04F8FB0B2F5F07F07464FF00000FC
:2016600000F362818A4640F256318A4500F35C81914652EA0A0100F157814EF2E0141E46ED
:20168000C0F600042068B84202D14FF0010811E0002100BF08460A2906D004EB80014968AA
:2016A000B94200F10101F5D14FF000080A2838BF4FF00108B8F1000F4FF000000E90CDE973
:2016C0000C00CDE90A00CDE90800079033D00BF0C7FF002054F82010B94203D001300B2857
:2016E000F8D1002047F6804140F24462C2F2014100FB02120025CFF6FF750235B2F8027273
:201700003B46CFF6FF73AB424BD3013F002302E06B1C9F421CD3FD1A03EB5505C72D17D828
:2017200002EBC504D4F80442B442F1D314D06F1E9F42F0D20CE04EF2703007ABC2F20140A0
:201740004FF428320090384631460BF0B9F940B300200FB0BDE8F08F40F244624EF2703606
:2017600000FB0210C2F2014600EBC500D0F80812D1E90202104400F120023046FEF71BFE26
:201780003068079070680890B0680990F1680A9131690B9171690C9106F120010D91084456
:2017A0000E90BDF81C100020042900F0AA80032940F0BA80BDF81E00002800F0B8801898DA
:2017C000C1B20220CDE903A9DDF838B000F084F9BDF82010002900F0A58020F07F4A4FF0AD
:2017E00000094FF0000E00BFBDF822C0BCF1000F4CD05FEACE704FF428301CBF4AF280703C
:20180000C0F202004EF27033BDF81E10C2F201430D9A03440026CDF808B003E00644AB44A9
:20182000664533D2481E032867D8DFE800F002090F159BF8000002259BF8017011E000BFD4
:201840009BF800000325BBF801700AE0BBF8000003259BF8027004E0BBF800000425BBF86C
:20186000027052F827402746002C18BF47EA0A07B8F1000F08BF27460028CFD0044600BFD7
:20188000013C43F8047BFBD1C8E700BF039804994844ADF814005FEACE704FF42830ADF8D3
:2018A00016104FF001011CBF4AF28070C0F20200ADF818104EF27031C2F2014103220144F8
:2018C00003230020009005A8ADF81AC0744600F09FFCB0FA80F1A6464909002818BF012048
:2018E00084EA010E00287FF433AFBDF8200009F101098145FFF478AF14E00120DDF808B093
:20190000F0E74EF270310690C2F2014105A80022ADF814A0ADF816900BF06EFE00F0B8FE03
:201920000028FBD0BDF820000FB0BDE8F08F08984EF270314FEA30400690C2F2014105A899
:2019400003220323ADF814A00027ADF81690009700F05EFC00287FF4FBAE044600F098FE7C
:201960000028FBD0002C7FF4F3AEDBE7000000002DE9F04F85B01F4613468A468146002073
:2019800040F2563219464FF0000BDDE90E6800F09BF80546002040F25632314600F094F80D
:2019A000064600204FF4F072394600F08DF8074600204FF4F072414600F086F83446B542AA
:2019C000C4BF2C46354606468742C4BF3E460746AC421EBFB8B2B1B281421ED1022051462B
:2019E00000F07AF80146601BADF81000F01BADF8120003A800220023ADF80C50ADF80E7038
:201A0000CDF800B000F058FE10B105B0BDE8F08F00F03EFE0028FBD0F7E7B9F1000FDDD10D
:201A20000FFA87F850462DB2424629462B4636B2DDF840900096CDF80490FFF731FD27B2C8
:201A40005046294632463B460096CDF80490FFF727FD5046394642463B46CDE90069FFF74C
:201A60001FFD5046294642463B46CDE90089FFF717FD05B0BDE8F08F10B542F69004C2F2D5
:201A80000044201DFEF7C8FF2079062819D1E0880021C4E90B11013881B21129A189616570
:201AA00088BF10BD4DF65C614DF6A46200B2C0F60001C0F6000251F82010E16252F8200082
:201AC000206310BD000000009142D8BF0A468142A8BF104670470000122918D8022818D088
:201AE000012828D098B940F20000C2F2004000EB810210F821005178927800F0F80001F00B
:201B0000FC01C90041EA002040EAD20070470020704740F20000C2F2004000EB810210F88E
:201B20002100D37851780004927840EA036040EA01201044704740F20000C2F2004000EB6E
:201B4000810210F8210051789278090241EA0040104470470000000041F64811C2F2004100
:201B6000D1F84C130A68D20348BF70470A6822F0006260F3DB620A607047000000000000A1
:201B800041F64811C2F20041D1F8600400281CBF0022C1F86024704741F64811C2F20041F5
:201BA000D1F85C0400281CBF0022C1F85C24704780B5B0FA80F00821420941F20000C5F636
:201BC000020004F0CDFD80BD80B541F64811C2F20041C1F8BC02022000F036F880BD00005A
:201BE00080B541F64811C2F20041D1F8B422824208BF80BDC1E9AD00032000F025F880BD00
:201C000080B541F648120346C2F200424FF0000C02F55370C2F85CC4C2F860C48AB2194667
:201C200008F0BAFE002818BF012080BD0000000080B541F64810C2F2004000F5537008F02F
:201C400033FC80BD0000000070B584B04DF6506141F64814C0F60001C2F20044D1E900329D
:201C600089680391CDE90132B4F8B412B4F8B862BDF8065043EA010CADF804C045EA0603D8
:201C8000ADF80630D4E9AF36D4E9B151002B18BF0123002E18BF0126002D42EA030218BF81
:201CA0000125002942EA460218BF0121D4F8CC3242EA8512002B42EAC11E18BF0123BDF8F5
:201CC0000A10D4F8D062002ED4F8D45218BF0126002DADF808E018BF0125194394F8D83225
:201CE000ADF80A1041EA4601ADF80A1041EA0511ADF80A1041EA4311ADF80A1094F8D9123F
:201D0000BDF80C30D4F8DC6201F00701002E18BF01261943ADF80C10D4E9B835D4F8E82206
:201D200041EA4611002B18BF0123BDF80E60002D18BF0125ADF80C10002A46EA030118BFB8
:201D40000122ADF80E1041EA4501D4F84C33ADF80E1041EA8201ADF80E101968C90303D489
:201D6000196841F000611960032810D002280FD0012811D1012003F0AFFA01A80626851E83
:201D800035F8020F00F014F8013EF9D104E0E6461FFA8EF000F00CF8D4F84C030168C90315
:201DA00003D4016821F00061016004B070BD0000B0B543F600050122C4F200050446696893
:201DC00062F30F016960296841F001012960286840F4007028604FF47A7008F021FF00BFC8
:201DE00008F006FF10B968698007F9D54FF47A702C8408F015FF00BF08F0FAFE10B96869C5
:201E00000007F9D5A86940F00800A861A86940F01000A861286820F001002860B0BD0000AB
:201E2000B0B51F233BB1013B03F01F0421FA04F4E407F7D001E04FF0FF334FEAF205032D46
:201E400011D84FF0000C4FF0010EDFE805F02002142C4FF0000E4FF0000C0F2B88BF4FF08A
:201E6000010C102B28E04FF0010C4FF0000EBEF1000F16D00EE04FF0000E4FF0000C072B1D
:201E800088BF4FF0010C082B38BF4FF0010EBEF1000F06D000684161816821F01801114332
:201EA00081606046B0BD4FF0000E4FF0000C062B88BF4FF0010C072B38BF4FF0010EBEF1AC
:201EC000000FEED0E6E7000010B5A8B10446407F20B900202077204600F032F80220607738
:201EE000207958B1D4E902122046FFF799FF00281CBF012010BD0BE0012010BD206841F6F2
:201F0000B751C0F2C1414161816821F018018160607908B1206901E04FF0FF302168D4E9BF
:201F200005230861886820F0600010438860886820F080001843886001206077002010BDCD
:201F40007047000000000000B0B504460068016841F0040121F00101016004F011FC054654
:201F600020680168C9070CD004F00AFC401BB0F57A7FF5D9606E032140F0200060660320D8
:201F800005E0016821F40C5101600020012184F86110002184F86010B0BD00000000000077
:201FA0002DE9F04383B00D4603F03EFA8046284603F03AFA41F648178146C2F2004797F8E5
:201FC0009D15042903D097F89D0505285FD107F23C50FFF7B9FF4FF40030C7F8400542F2E3
:201FE000291007F23C56C0F60000C7F85C0542F239100125C0F60000C7F860053046C7F895
:2020000044550024C7F84845C7F84C45C7F85045C7F85445C7F8584500F0FAFA00213046E4
:20202000C7F86445C7F86855FF25C7F86C45C7F87055C7F87445C7F87845C7F87C4500F040
:2020400083F801213046C7F88045C7F88445C7F88845C7F88C55C7F89045C7F89445C7F84A
:20206000984500F071F803F0ABF903464FF4F070009040F256300190304641464A4600F051
:202080001BF8002818BF012003B0BDE8F08397F89D0502289FD141F2883008F0C1FD00BF17
:2020A00008F0A6FD002892D197F89D050128F7D191E7000000000000B0B582B0054690F8F6
:2020C000600001284FF0020028D0012485F8604085F861006868B0F5A02FDDE906CE05D06B
:2020E000B0F5802F05D12868016205E02868826201E0286842610A46284611461A46634638
:20210000CDF800E0FEF718FE2868016841F40C510160016841F001010160002002B0B0BDE7
:2021200070470000000000004AF22820C2F2044001680131016070474AF22C20C2F2044039
:202140000168013101607047F0B590F86020012A4FF0020257D0C1EBC103012480F86040DD
:2021600000EB830380F8612003F1340ED3E90B259EE8105042EA0546A2F109052706022D79
:2021800046EA0C5603F1280C38BF04F07F4746EA4E56002946EA07011BD04FF6F07E0B2ACC
:2021A000C0F2CC0E04D11A6CAEF5402E41EA82410268012DD46904EA0E0741EA0701D161FC
:2021C000DCF80010116118D8596B21F07F41116213E002684FF6F076C0F2CC06012D576A36
:2021E00007EA060741EA07015162DCF80010916103D8596B21F07F4191620022012180F806
:20220000611080F860201046F0BD0000000000002DE9F04F81B005460A981F46164689464F
:2022200003F002F9A98899B1E98899B1F11B18BF0121032F10D0022F17D0012F7CD12A881C
:2022400002276B88C2EB021203EB4212520015E0012772E0012770E02A8800276B88C2EBAD
:20226000021203EB4212920008E02A8801276B88C2EB021203EB421202EB4202731EDBB26F
:20228000022B57D841F648144FEA014BC2F2004402EB0008C3F1020A94F89D65042E03D08A
:2022A00094F89D0505284CD104F23C50FFF74CFEA888C4F840B5C4F8447504F23C56411EA7
:2022C0004FF0000718BFC0F5F07142F22910C4F85875C0F60000C4F85C0542F23910C4F8C9
:2022E0004815C0F60000C4F860053046C4F85475C4F85075C4F84C7500F08AF9FF20C4F863
:202300008C0501213046C4F88075C4F884A5C4F88875C4F89075C4F89475C4F89875FFF700
:2023200013FFAB884946E88842460090304600F067FA02E0012700E00127384601B0BDE894
:20234000F08F94F89D050228B2D141F2883008F067FC00BF08F04CFC0028A5D194F89D0512
:202360000128F7D1A4E700002DE9F04F81B00446184693460F460A9D03F056F88046284669
:2023800003F052F8A18871B1E28872B17FB1022F15D0012F1BD111F00F094FF0020A18BF8B
:2023A000C9F1100917E001277AE0012778E011F007094FF0000A18BFC9F108090BE011F069
:2023C0000F094FF0010A18BFC9F1100903E04FF0010A4FF00009218841F648166288C2F2A0
:2023E00000465D46BBF1000FC1EB011118BF012502EB4111BBF1000F96F89D3501EB4102F5
:2024000008BF8A00042B02EB000B03D096F89D05052849D106F23C50FFF796FD4FF48030FA
:20242000C6F84005A088C6F8445506F23C550027C0F5F070C6F8480542F22910C6F84C755E
:20244000C0F60000C6F85C0542F23910C6F85075C0F60000C6F860052846C6F85475C6F81B
:20246000587500F0D5F80B20C6F884050120C6F88805FF20C6F88C0501212846C6F8809523
:20248000C6F89075C6F89475C6F898A5FFF75CFEA3884146E0885A460090284600F0B0F916
:2024A000384601B0BDE8F08F96F89D050228B5D141F2883008F0B4FB08F09AFB0028A9D128
:2024C00096F89D050128F7D1A8E700000000000070B50446006846680568F10718BF15F482
:2024E00080717CD1B0061AD515F4005017D02068616A026822F4005202604FF020028260EF
:20250000606E40F0020060664FF0040084F861004FF0000084F8600009B120468847300794
:202520001AD515F4006017D02068616A026822F4006202604FF008028260606E40F0040098
:2025400060664FF0040084F861004FF0000084F8600009B12046884770070CD515F480604A
:2025600009D02068016821F48061016004218160204600F099F8B00718D515F4007015D04B
:202580002068216A026822F4007202604FF002028260606E60664FF0010084F861004FF0BF
:2025A000000084F8600009B120468847F00615D515F4805008BF70BD2068016821F48051CC
:2025C000016010218160606E6066012084F86100002084F860002046FFF7A2FD70BD016869
:2025E00021F480710160616E41F00101616601218160042084F86100616A0020002984F817
:2026000060003FF46FAF204688476BE700000000D8B310B5044690F8610028B9002084F882
:202620006000204600F044F8022084F8610094E803404FF6BF72D4F80CC00368CFF6F87242
:202640001A40E369114340F2071219430160416B9143A26941EA0E0111434163016C4FF609
:20266000FF72914341EA0C010164416B226921F44011636941EA025141EA4351416300200E
:202680006066012184F8611010BD01207047000041F64810C2F2004090F89D050138B0FA30
:2026A00080F0400970470000704700000000000070470000000000002DE9F04782B0054672
:2026C0008088C8B1E888C8B10A981F4616468A4602F0AAFE012F13D0002F76D12988002762
:2026E0006A88C1EB011102EB411189009EB1012E6DD14FF0010910E0012769E0012767E08D
:20270000298801276A88C1EB011102EB411101EB4101002EEBD14FF0000941F6481401EB12
:202720000008C2F2004494F89D25042A03D094F89D05052850D104F23C50FFF705FCA88825
:20274000C4F8447500274FF4403101284FF00000C4F8401502D0E888C0F5F070C4F8480550
:2027600042F2291004F23C56C0F6000042F23911C4F85C053046C4F84C75C4F85075C0F6E9
:202780000001C4F85475C4F85875C4F86015FFF73FFFFF20C4F88C0501213046C4F8807510
:2027A000C4F88495C4F88875C4F89075C4F89475C4F89875FFF7C8FCEB885146A8884246C0
:2027C0000090304600F01CF802E0012700E00127384602B0BDE8F08794F89D050228AED1BA
:2027E00041F2883008F01CFA08F002FA0028A2D194F89D050128F7D1A1E7000000000000AA
:20280000B0B582B0054690F8600001284FF0020013D0012485F8604085F861002846069C71
:202820000094FEF789FA2868016841F40C510160016841F001010160002002B0B0BD000064
:202840002DE9F041044603F09BFF04B3054694F8350002281ED140F20F472068C4F20207AF
:2028600040F26F48B842C4F2020817DC6F21C4F20201884223DC3F21C4F20201884239DCB8
:202880001021C4F20201884258D0282151E00120BDE8F081802060650120ABE240451ADC1D
:2028A00040F23F41C4F2020188422ADC40F21041C4F20201884241D040F2284139E09F2152
:2028C000C4F20201884225DC7021C4F20201884234D088212DE040F29F41C4F20201884211
:2028E0001FDC40F27041C4F20201884226D040F288411EE04021C4F2020188421ED058213D
:2029000017E040F24041C4F20201884216D040F258410EE0A021C4F2020188420ED0B821F0
:2029200007E040F2B841C4F20201884206D040F2A041C4F20201884240F0EA8126683168D4
:2029400021F01E02314641F8142B6FF080020B68404502EA03020A6019DC9F21C4F20201B5
:20296000884231DC5721C4F20201884256DC1021C4F20201884200F091802821C4F202019C
:20298000884200F08B804021C4F2020184E045F22F41C5F6020188422BDC40F2B741C4F2DE
:2029A0000201884248DC40F27041C4F20201884274D040F28841C4F2020188426ED040F28E
:2029C000A041C4F2020167E040F22741C4F20201884240DCA021C4F2020188425ED0B82192
:2029E000C4F20201884259D040F21041C4F2020152E045F26B41C5F6020188423CDC45F203
:202A00003041C5F60201884248D045F24441C5F60201884242D045F258413BE05821C4F235
:202A2000020188423AD07021C4F20201884235D08821C4F202012FE040F2B841C4F2020151
:202A400088422BD045F20841C5F60201884225D045F21C411EE040F22841C4F20201884204
:202A60001CD040F24041C4F20201884216D040F25841C4F202010FE045F26C41C5F6020139
:202A800088420BD045F29441C5F60201884205D045F28041C5F60201884269D1216EB842E5
:202AA0000A6822F480720A6010DC6F21C4F2020188421CDC3F21C4F20201884232DC102119
:202AC000C4F20201884252D028214AE040451ADC40F23F41C4F2020188422ADC40F21041A5
:202AE000C4F20201884242D040F2284139E09F21C4F20201884225DC7021C4F20201884235
:202B000035D088212DE040F29F41C4F2020188421FDC40F27041C4F20201884227D040F2DB
:202B200088411EE04021C4F2020188421FD0582117E040F24041C4F20201884217D040F23C
:202B400058410EE0A021C4F2020188420FD0B82107E040F2B841C4F20201884207D040F254
:202B6000A041C4F20201884208BF206800E02068016821F0010101603068C0070BD003F030
:202B8000FFFD401B0628F7D320206065032084F8350001202EE12068B84210DC6F21C4F229
:202BA000020188421CDC3F21C4F20201884232DC1021C4F20201884250D028214AE0404593
:202BC0001ADC40F23F41C4F2020188422ADC40F21041C4F20201884240D040F2284139E0FA
:202BE0009F21C4F20201884225DC7021C4F20201884233D088212DE040F29F41C4F20201F9
:202C000088421FDC40F27041C4F20201884225D040F288411EE04021C4F2020188421DD0CA
:202C2000582117E040F24041C4F20201884215D040F258410EE0A021C4F2020188420DD02F
:202C4000B82107E040F2B841C4F20201884205D040F2A041C4F2020188425ED1D4E9161287
:202C600002F01F023F2303FA02F28A6040455EDC9F21C4F20201884214DC5721C4F20201E1
:202C8000884226DC1021C4F20201884200F0A2802821C4F20201884200F09C804021C4F2B3
:202CA000020195E040F22741C4F2020188421EDCA021C4F20201884200F08C80B821C4F2B6
:202CC0000201884200F0868040F21041C4F202017EE05821C4F2020188427BD07021C4F209
:202CE0000201884276D08821C4F2020170E040F22841C4F2020188426CD040F24041C4F24C
:202D00000201884266D040F25841C4F202015FE021686FF00E020E4619E6D4E9161202F0CB
:202D20001F02012303FA02F24A604045A0DD45F22F41C5F60201884216DC40F2B741C4F2B0
:202D40000201884225DC40F27041C4F20201884240D040F28841C4F2020188423AD040F275
:202D6000A041C4F2020133E045F26B41C5F6020188421DDC45F23041C5F60201884229D019
:202D800045F24441C5F60201884223D045F258411CE040F2B841C4F2020188421AD045F261
:202DA0000841C5F60201884214D045F21C410DE045F26C41C5F6020188420BD045F294418A
:202DC000C5F60201884205D045F28041C5F6020188420BD1616EA26EE06E4A6030B1016819
:202DE00021F480710160D4E91C014160012084F835000020002184F83410BDE8F081000008
:202E0000F0B581B0E0B140F20F4704460168C4F2020740F26F40B942C4F2020013DC6F223D
:202E2000C4F2020291421FDC3F22C4F20202914235DC1022C4F20202914254D028224DE0B1
:202E4000012001B0F0BD81421ADC40F23F42C4F2020291422ADC40F21042C4F202029142E3
:202E600041D040F2284239E09F22C4F20202914225DC7022C4F20202914234D088222DE063
:202E800040F29F42C4F2020291421FDC40F27042C4F20202914226D040F288421EE04022D4
:202EA000C4F2020291421ED0582217E040F24042C4F20202914216D040F258420EE0A02283
:202EC000C4F2020291420ED0B82207E040F2B842C4F20202914206D040F2A042C4F2020269
:202EE000914240F09F812268136881424FF0010023F00103136015DC9F22C4F202029142DE
:202F00002BDC5722C4F2020291424EDC1022C4F20202914277D02822C4F20202914272D05B
:202F200040226BE045F22F42C5F60202914227DC40F2B742C4F20202914242DC40F27042ED
:202F4000C4F2020291425ED040F28842C4F20202914258D040F2A04250E040F22742C4F270
:202F6000020291423CDCA022C4F2020291424AD0B822C4F20202914245D040F210423DE0DC
:202F800045F26B42C5F60202914250DC45F23042C5F6020291425DD045F24442C5F60202AB
:202FA000914257D045F258424FE05822C4F20202914228D07022C4F20202914223D088225C
:202FC0001CE040F2B842C4F2020291421BD045F20842C5F6020291423CD045F21C4234E089
:202FE00040F22842C4F2020291420CD040F24042C4F20202914206D040F25842C4F202022F
:20300000914240F00D8120680021016041608160C1600161212141612046FDF7EDFEE16D99
:203020003F2201F01F0102FA01F1816023E045F26C42C5F6020291420CD045F28042C5F645
:203040000202914206D045F29442C5F60202914240F0E68020680021016041608160C160E1
:2030600001612046FDF7C8FEE16D012201F01F0102FA01F1416045F2574C2168C5F6020C91
:2030800045F6FC006145C5F602000EDC45F22F42C5F60202914217DC45F20842C5F602023F
:2030A000914226D045F21C421FE045F27F42C5F60202914211DC45F25842C5F602029142D9
:2030C00017D045F26C4210E045F23042C5F6020291420ED045F2444207E045F29442C5F6AF
:2030E0000202914205D045F28042C5F60202914249D122784CF6CD43CCF6CC43A0F1FC0530
:20310000083AA2FB0323A0F17C021B0905EB830503F01F030127C4E9185207FA03F2A266AD
:2031200025B100222A60D4E9192353606268531E072B66D84FF0FF3353FA82F3072B5AD81F
:20314000D2B2614500F144050EDC45F22F47C5F60207B94233DC45F20847C5F60207B94261
:2031600042D045F21C473BE045F27F47C5F60207B9422DDC45F25847C5F60207B94233D02B
:2031800045F26C472CE022784AF6AB23CAF6AA230826103AB942A2FB032507F1AA074FEAEA
:2031A0001512134688BF06EB151340F60005B942C4F2020528BF134605F18002A6E745F2C0
:2031C0003047C5F60207B9420ED045F2444707E045F28047C5F60207B94205D045F294478E
:2031E000C5F60207B9421FD100EB8200E066012025679840606704F16C02002307CA036067
:203200004A6000206067C4E91B00C4E90F00C4E91100C4E91300606584F8350084F83400F5
:2032200001B0F0BD0A465FE640F60001C4F2020101F1FC0001F5A075D6E7000000000000F5
:20324000406D7047000000002DE9F04381B00021009140F250010446C2F2004140F26F4932
:20326000A56DC4F20209086848F2B511C1F64E312768A0FB01084F452E682A6815DC9F2036
:20328000C4F2020087422BDC5720C4F2020087424FDC1020C4F20200874278D02820C4F28C
:2032A0000200874273D040206CE045F22F40C5F60200874227DC40F2B740C4F2020087427B
:2032C00043DC40F27040C4F2020087425FD040F28840C4F20200874259D040F2A04051E056
:2032E00040F22740C4F2020087423DDCA020C4F2020087424BD0B820C4F20200874246D0D0
:2033000040F210403EE045F26B40C5F60200874274DC45F23040C5F60200874200F0818037
:2033200045F24440C5F6020087427AD045F2584072E05820C4F20200874228D07020C4F2AA
:203340000200874223D088201CE040F2B840C4F2020087421BD045F20840C5F60200874270
:203360005FD045F21C4057E040F22840C4F2020087420CD040F24040C4F20200874206D054
:2033800040F25840C4F20200874240F00A85E06D00F01F01082000FA01F2324200F01381B9
:2033A00040F20F40C4F20200874213DC6F20C4F20200874200F390803F20C4F20200874229
:2033C00000F3CE801020C4F20200874200F0EC802820E4E04F4500F38B8040F23F40C4F29A
:2033E0000200874200F3C38040F21040C4F20200874200F0D98040F22840D0E045F26C4053
:20340000C5F6020087420CD045F28040C5F60200874206D045F29440C5F60200874240F036
:20342000C084E06D236800F01F01042000FA01F61B68164218BF13F004002BD1022000FA7A
:2034400001F6164218BF13F0020066D122FA01F0000740F1A68413F0080000F0A28440F248
:203460000F40C4F20200874200F321836F20C4F20200874200F398833F20C4F202008742E7
:2034800000F3DD831020C4F20200874200F0FB832820F3E318046E6039D4980600F1318461
:2034A00040F20F40C4F20200874200F36A836F20C4F20200874200F392833F20C4F20200FB
:2034C000874200F3F5831020C4F20200874200F01284282000F00BBC9F20C4F20200874242
:2034E0004EDC7020C4F2020087425DD0882056E040F29F40C4F20200874248DC40F27040EE
:20350000C4F2020087424FD040F2884047E0D80300F1F783A16C00F041BC18046E6000F1CF
:20352000C182980600F1398440F20F40C4F20200874200F370836F20C4F20200874200F311
:20354000E2833F20C4F20200874200F3F7831020C4F20200874200F01484282000F00DBC7F
:203560004020C4F2020087421ED0582017E040F24040C4F20200874216D040F258400EE03C
:20358000A020C4F2020087420ED0B82007E040F2B840C4F20200874206D040F2A040C4F204
:2035A0000200874240F09782206804230068184209D02068036823F004030360AA60606D66
:2035C00040F001006065012000FA01F2324270D040F20F40C4F20200874210DC6F20C4F200
:2035E000020087421CDC3F20C4F20200874232DC1020C4F20200874251D028204AE04F4542
:203600001ADC40F23F40C4F2020087422ADC40F21040C4F20200874241D040F2284039E0B5
:203620009F20C4F20200874225DC7020C4F20200874234D088202DE040F29F40C4F20200B6
:2036400087421FDC40F27040C4F20200874226D040F288401EE04020C4F2020087421ED086
:20366000582017E040F24040C4F20200874216D040F258400EE0A020C4F2020087420ED0EB
:20368000B82007E040F2B840C4F20200874206D040F2A040C4F20200874240F01F822068FE
:2036A000406900F0800020B1AA60606D40F002006065042000FA01F2324270D040F20F400C
:2036C000C4F20200874210DC6F20C4F2020087421CDC3F20C4F20200874232DC1020C4F2A1
:2036E0000200874251D028204AE04F451ADC40F23F40C4F2020087422ADC40F21040C4F272
:203700000200874241D040F2284039E09F20C4F20200874225DC7020C4F20200874234D0C4
:2037200088202DE040F29F40C4F2020087421FDC40F27040C4F20200874226D040F28840F4
:203740001EE04020C4F2020087421ED0582017E040F24040C4F20200874216D040F258404A
:203760000EE0A020C4F2020087420ED0B82007E040F2B840C4F20200874206D040F2A040EA
:20378000C4F20200874240F0AF812068006800F0020020B1AA60606D40F004006065102095
:2037A00000FA01F131427ED040F20F40C4F20200874210DC6F20C4F2020087421CDC3F2007
:2037C000C4F20200874232DC1020C4F20200874251D028204AE04F451ADC40F23F40C4F225
:2037E000020087422ADC40F21040C4F20200874241D040F2284039E09F20C4F202008742F1
:2038000025DC7020C4F20200874234D088202DE040F29F40C4F2020087421FDC40F270406E
:20382000C4F20200874226D040F288401EE04020C4F2020087421ED0582017E040F2404029
:20384000C4F20200874216D040F258400EE0A020C4F2020087420ED0B82007E040F2B84041
:20386000C4F20200874206D040F2A040C4F20200874240F03F81276808223868104212D0E1
:20388000A960206801684903016806D4C90506D4016821F00801016001E008034FD4216C77
:2038A00009B120468847E06D202100F01F008140314200F0A88040F20F432268C4F2020367
:2038C0009A4210DC6F23C4F202039A421CDC3F23C4F202039A4236DC1023C4F202039A422A
:2038E00055D028234EE04A451ADC40F23F43C4F202039A422EDC40F21043C4F202039A4234
:2039000045D040F228433DE09F23C4F202039A4229DC7023C4F202039A4238D0882331E08C
:2039200040F29F43C4F202039A4223DC40F27043C4F202039A422AD040F2884322E0A16C5B
:203940000029AED1AFE74023C4F202039A421ED0582317E040F24043C4F202039A4216D09D
:2039600040F258430EE0A023C4F202039A420ED0B82307E040F2B843C4F202039A4206D0F8
:2039800040F2A043C4F202039A4240F0B5802268102312681A4236D0A96094F8352021680A
:2039A000042A0A6817D122F016020A604A6922F080024A61226C0AB9A26C1AB10A6822F04B
:2039C00008020A603F2101FA00F0A860012084F83500216D65E1500308680CD4C0050ED430
:2039E000086820F010000860012084F83500002084F8340003E0000301D4616C00E0E16B79
:203A000009B120468847606D002800F0CA81606DC00700F0B480042084F8350040F20F4178
:203A20002068C4F20201884210DC6F21C4F2020188421CDC3F21C4F2020188425EDC102136
:203A4000C4F2020188427ED0282176E048451ADC40F23F41C4F20201884256DC40F2104189
:203A6000C4F2020188426ED040F2284165E09F21C4F20201884251DC7021C4F20201884221
:203A800061D0882159E040F29F41C4F2020188424BDC40F27041C4F20201884253D040F29C
:203AA00088414AE0D80300F17881616C76E14F4500F3868040F23F40C4F20200874200F378
:203AC000C58040F21040C4F20200874200F0DB8040F22840D2E00823384667E53868002052
:203AE00000287FF4E1ADE4E53868002000287FF451AE54E60422C0E602234AE74021C4F207
:203B0000020188421FD0582117E040F24041C4F20201884217D040F258410EE0A021C4F22C
:203B2000020188420FD0B82107E040F2B841C4F20201884207D040F2A041C4F202018842FE
:203B400008BF206800E020684FEA9821026822F001020260009801300090884203D8206855
:203B60000068C007F6D120680068C0074FF0030008BF012084F83500002084F83400E16CA0
:203B80000CE14F4538DC40F23F40C4F20200874200F3958040F21040C4F20200874200F063
:203BA000AA8040F22840A2E09F20C4F20200874255DC7020C4F20200874264D088205DE024
:203BC00040F29F40C4F2020087424FDC40F27040C4F20200874256D040F288404EE09F20B8
:203BE000C4F20200874273DC7020C4F20200874200F0818088207AE040F29F40C4F2020028
:203C000087426CDC40F27040C4F20200874272D040F288406BE04F4500F3818040F23F4070
:203C2000C4F20200874200F3908040F21040C4F20200874200F0A58040F228409DE0402071
:203C4000C4F2020087421ED0582017E040F24040C4F20200874216D040F258400EE0A020F5
:203C6000C4F2020087420ED0B82007E040F2B840C4F20200874206D040F2A040C4F20200DB
:203C8000874240F0918027686FF01C02386810403860012000FA01F16960606584F835003A
:203CA000E16C00294FF0000084F8340077D178E04020C4F2020087421DD0582017E040F290
:203CC0004040C4F20200874215D040F258400EE0A020C4F2020087420DD0B82007E040F237
:203CE000B840C4F20200874205D040F2A040C4F2020087425BD127686FF0080138680840D8
:203D00003860216C4AE09F20C4F20200874225DC7020C4F20200874233D088202DE040F218
:203D20009F40C4F2020087421FDC40F27040C4F20200874225D040F288401EE04020C4F2C2
:203D4000020087421DD0582017E040F24040C4F20200874215D040F258400EE0A020C4F2F6
:203D6000020087420DD0B82007E040F2B840C4F20200874205D040F2A040C4F202008742C9
:203D800018D127686FF01401386808403860012084F83500002084F83400E16B09B12046A9
:203DA000884701B0BDE8F0836FF00E026EE76FF00401A3E76FF00A01E6E700000000000082
:203DC0002DE9F04381B0044602F0DAFC002C00F0738140F26F4805462068C4F20208404546
:203DE00015DC9F21C4F2020188422BDC5721C4F20201884251DC1021C4F2020188427AD062
:203E00002821C4F20201884275D040216EE045F22F41C5F60201884227DC40F2B741C4F2D0
:203E20000201884245DC40F27041C4F20201884261D040F28841C4F2020188425BD040F222
:203E4000A04153E040F22741C4F2020188423FDCA021C4F2020188424DD0B821C4F2020123
:203E6000884248D040F2104140E045F26B41C5F60201884200F3908045F23041C5F60201E9
:203E8000884200F09C8045F24441C5F60201884200F0958045F258418CE05821C4F2020195
:203EA000884228D07021C4F20201884223D088211CE040F2B841C4F2020188421BD045F2C4
:203EC0000841C5F60201884279D045F21C4171E040F22841C4F2020188420CD040F2404136
:203EE000C4F20201884206D040F25841C4F20201884240F0388140F20F420221C4F20202D2
:203F000084F8351090424FF0000184F8341012DC6F21C4F20201884220DC3F21C4F20201F8
:203F2000884200F391801021C4F20201884200F0B0802821A7E040451EDC40F23F41C4F228
:203F40000201884200F3878040F21041C4F20201884200F09E8040F2284194E09F21C4F201
:203F60000201884200F380807021C4F20201884200F08F80882186E040F29F41C4F2020194
:203F8000884278DC40F27041C4F20201884200F0808040F2884176E045F26C41C5F60201BA
:203FA00088420CD045F28041C5F60201884206D045F29441C5F60201884240F0D48004F1F8
:203FC000080E022084F8350000209EE80640A1F1800384F83400B3FA83F320685B094029CF
:203FE000D4E90576D4E9079C05684FEA83336FF3101508BF102345EAD2014AF6F832194384
:20400000CAF2FD7241EADE014CF6CD4341EAD701024441EAD601CCF6CC4341EAD901A2FB5B
:20402000032341EA1C1101606FF0030000EA9300E0652046FCF7E0FEE16D012201F01F01C4
:2040400002FA01F14160B9E04021C4F2020188421FD0582117E040F24041C4F202018842BF
:2040600017D040F258410EE0A021C4F2020188420FD0B82107E040F2B841C4F2020188420F
:2040800007D040F2A041C4F20201884208BF206800E02068016821F001010160206801682E
:2040A000C9070DD002F06CFB401B0628F6D320206065032084F83500012001B0BDE8F083E5
:2040C00048F23F0204F108060168CFF61062114065694CCE1143A2691943E3693143266A7E
:2040E0000D43616A1543042943EA050343EA060303D1D4E90B6533432B4341F20006C5F6DC
:2041000000463668B6F1005F16D36568A5F12906202E05D23F27CCF2C037F740FF0706D1E6
:20412000A5F14F060025042E38BF012500E00125002D18BF43F4801303600429436923F0FD
:20414000070341EA03012ED1D4E90A5341EA05014BB3B2F5005F08D09AB9022D16D0012D6A
:2041600009D09DB115E04020A2E7032D11D8DFE805F00A0D0A02A3F1C072B2FA82F2520901
:2041800008E0032D01D2012204E002D1C3F3006200E000223AB140206065012084F835005E
:2041A00001B0BDE8F08341612046FCF725FEE16D3F2201F01F0102FA01F18160206840457C
:2041C00019DC9F21C4F20201884231DC5721C4F20201884256DC1021C4F20201884200F0C9
:2041E00092802821C4F20201884200F08C804021C4F2020184E045F22F41C5F60201884238
:204200002BDC40F2B741C4F20201884248DC40F27041C4F20201884275D040F28841C4F26A
:20422000020188426FD040F2A041C4F2020167E040F22741C4F20201884240DCA021C4F2AF
:20424000020188425FD0B821C4F2020188425AD040F21041C4F2020152E045F26B41C5F6D0
:20426000020188423CDC45F23041C5F60201884249D045F24441C5F60201884243D045F282
:2042800058413BE05821C4F2020188423BD07021C4F20201884236D08821C4F202012FE0D8
:2042A00040F2B841C4F2020188422CD045F20841C5F60201884226D045F21C411EE040F292
:2042C0002841C4F2020188421DD040F24041C4F20201884217D040F25841C4F202010FE075
:2042E00045F26C41C5F6020188420CD045F29441C5F60201884206D045F28041C5F6020156
:20430000884240F0CF8045F2574C45F6FC01C5F6020CC5F6020160450EDC45F22F43C5F6C8
:204320000203984217DC45F20843C5F60203984226D045F21C431FE045F27F43C5F602034B
:20434000984211DC45F25843C5F60203984217D045F26C4310E045F23043C5F60203984229
:204360000ED045F2444307E045F29443C5F60203984205D045F28043C5F60203984250D188
:2043800023784CF6CD47CCF6CC47A1F1FC05083BA1F17C06A3FB07373B0905EB8302226650
:2043A000A26803F01F030127802A666607FA03F2A26601D1002262606268A66ED4E91837A2
:2043C000D5B2013A072A1D607E6016D82679731E072B61D8604501F1440213DC45F22F478D
:2043E000C5F60207B8423BDC45F20847C5F60207B8424AD045F21C4743E000206067C4E939
:204400001B004FE045F27F47C5F60207B84230DC45F25847C5F60207B84236D045F26C4707
:204420002FE023784AF6AB27CAF6AA270825103BA3FB073740F20F43C4F202033E0998427B
:2044400003F1AA02334688BF05EB171340F600059042C4F2020528BF334605F180069CE7B9
:2044600045F23047C5F60207B8420ED045F2444707E045F28047C5F60207B84205D045F281
:204480009447C5F60207B84214D101EB8600E066012022679840606704F16C02002307CA46
:2044A00003604A6000206065012184F8351001B0BDE8F08340F60000C4F2020000F1FC0182
:2044C00000F5A072E1E70000F0B581B0A8B3044690F83400012802D1022001B0F0BD012039
:2044E00084F8340094F83500012820D1022084F835000020606540F20F462068C4F20206AC
:2045000040F26F47B042C4F2020719DC6F25C4F20205A84225DC3F25C4F20205A8423BDCAF
:204520001025C4F20205A8425BD0282553E04FF400606065002084F83400012001B0F0BD3D
:20454000B8421ADC40F23F45C4F20205A8422ADC40F21045C4F20205A84242D040F2284529
:2045600039E09F25C4F20205A84225DC7025C4F20205A84235D088252DE040F29F45C4F2EF
:204580000205A8421FDC40F27045C4F20205A84227D040F288451EE04025C4F20205A842A1
:2045A0001FD0582517E040F24045C4F20205A84217D040F258450EE0A025C4F20205A8422A
:2045C0000FD0B82507E040F2B845C4F20205A84207D040F2A045C4F20205A84208BF20687E
:2045E00000E02068056825F0010505602046FCF793FC2068B04210DC6F21C4F20201884205
:204600001CDC3F21C4F20201884232DC1021C4F20201884251D028214AE0B8421ADC40F247
:204620003F41C4F2020188422ADC40F21041C4F20201884241D040F2284139E09F21C4F230
:204640000201884225DC7021C4F20201884234D088212DE040F29F41C4F2020188421FDC2E
:2046600040F27041C4F20201884226D040F288411EE04021C4F2020188421ED0582117E0A3
:2046800040F24041C4F20201884216D040F258410EE0A021C4F2020188420ED0B82107E063
:2046A00040F2B841C4F20201884206D040F2A041C4F20201884240F0298121680B25226CBF
:2046C0000B6865F344030B601AB108220B681A430A60B84219DC9F21C4F20201884231DCEF
:2046E0005721C4F20201884256DC1021C4F20201884200F091802821C4F20201884200F01C
:204700008B804021C4F2020184E045F22F41C5F6020188422BDC40F2B741C4F2020188422D
:2047200048DC40F27041C4F20201884274D040F28841C4F2020188426ED040F2A041C4F226
:20474000020167E040F22741C4F20201884240DCA021C4F2020188425ED0B821C4F20201D2
:20476000884259D040F21041C4F2020152E045F26B41C5F6020188423CDC45F23041C5F6F2
:204780000201884248D045F24441C5F60201884242D045F258413BE05821C4F202018842F7
:2047A0003AD07021C4F20201884235D08821C4F202012FE040F2B841C4F2020188422BD0BC
:2047C00045F20841C5F60201884225D045F21C411EE040F22841C4F2020188421CD040F20E
:2047E0004041C4F20201884216D040F25841C4F202010FE045F26C41C5F6020188420BD015
:2048000045F29441C5F60201884205D045F28041C5F60201884272D1216E0A68D20303D5BE
:204820000A6842F480720A60E16E19B10A6842F480720A60B04210DC6F21C4F20201884266
:204840001CDC3F21C4F20201884232DC1021C4F20201884252D028214AE0B8421ADC40F204
:204860003F41C4F2020188422ADC40F21041C4F20201884242D040F2284139E09F21C4F2ED
:204880000201884225DC7021C4F20201884235D088212DE040F29F41C4F2020188421FDCEB
:2048A00040F27041C4F20201884227D040F288411EE04021C4F2020188421FD0582117E05F
:2048C00040F24041C4F20201884217D040F258410EE0A021C4F2020188420FD0B82107E01F
:2048E00040F2B841C4F20201884207D040F2A041C4F20201884208BF206800E0206801687D
:2049000041F001010160002001B0F0BD21680525226C0B68002A65F343030B603FF4D9AEE4
:204920000422D3E60000000080B5027C012A01D1022080BD02680123037448F2FF03D2F87E
:2049400068C0CFF6F06303EA0C039366D1E900C3D1F808E043EA0C03D1F80CC043EA0E03E5
:20496000D1F810E043EA0C03D1F814C043EA0E03D1F818E043EA0C03D1F81CC043EA0E0387
:204980004CEA030C0B6A4CEA030C4B6A4CEA030C8B6A4CEA030CCB6A4CEA030C936E43EA3C
:2049A0000C039366936E23F002039366096B936E1943916600210174084680BD00000000F4
:2049C000027C012A01D1022070470268012303740023C2F8C430C2F8C830CB0781611BD15B
:2049E0008B0723D44B0729D40B072FD4CB0635D48B063BD44B0641D40B0647D4CB054DD4CD
:204A0000890505D5D2F8C81041F4F851C2F8C8100021017408467047D2F8C4C04FF6FF73DC
:204A200043EA0C03C2F8C4308B07DBD5D2F8C43043F4F813C2F8C4304B07D5D5D2F8C830DE
:204A400043F00103C2F8C8300B07CFD5D2F8C83043F00203C2F8C830CB06C9D5D2F8C830DA
:204A600043F00C03C2F8C8308B06C3D5D2F8C83043F01003C2F8C8304B06BDD5D2F8C830BA
:204A800043F02003C2F8C8300B06B7D5D2F8C83043F04003C2F8C830CB05B1D5D2F8C8306F
:204AA00043F08003C2F8C8308905B1D5AAE70000027C012A01D1022070470268D36A23F0DB
:204AC0001F03D362D36A1943D1620021017408467047000000000000027C012A01D102207B
:204AE0007047026801230374936823F47F439360D1F800C0936843EA0C239360936F9BB211
:204B00009367D1F804C0936F43EA0C439367D2F878C04FF6FF732CEA03039367D1F808C036
:204B2000936F43EA0C039367D36F6FF30F03D367D1F80CC0D36F43EA0C03D367D2F8803086
:204B40006FF30F03C2F88030D1F810C0D2F8803043EA0C03C2F88030D2F884306FF30F03CC
:204B6000C2F88430D1F814C0D2F8843043EA0C03C2F88430D2F8843023F08073C2F8843010
:204B8000D1F818C0D2F8843043EA0C03C2F88430D2F888306FF30F03C2F88830D1F81CC03F
:204BA000D2F8883043EA0C03C2F88830D2F88C306FF30F03C2F88C30096AD2F88C30194300
:204BC000C2F88C1000210174084670470000000010B5027C012A01D1022010BD0368012227
:204BE0000274D1F808E0D1E9002C944588BF6246D1F80CC0D3F8984004F0FC24C3F8984001
:204C000042EA0242D3F898402243C3F89820D3F89C2002F40042C3F89C200A69D3F89C4059
:204C200042EA0C4242EA0E622243C3F89C20D3F8A42022F47F42C3F8A4204969D3F8A4205C
:204C400042EA0121C3F8A41000210174084610BD70B5027C012A01D1022070BD0268012369
:204C6000037441F6FF74536B23F001035363D2F8003423F00103C2F80034936B23F003036E
:204C80009363D2F838C04D69D1E9033E43EA0C039363D36B43F6FF7C23EA0C03D363D36BF7
:204CA00043EA0E03D363136CA3431364136C2B431364536C6FF30C0353648B69556C2B4336
:204CC0005364D36823F00303D3600B68D5682B43D360536923F0070353614D6AD1E90743FD
:204CE0002B43556923432B435361136923F00F0313614B6815691D431561D2F80054032B98
:204D000025F00E05C2F80054D2F8005445EA4303C2F8003407D1136923F4807313618B6817
:204D200015692B431361936C40F6FF75AB439364936CD1E90A54D1E90CE62B439364D36C1E
:204D400040F2FF356FF30B03D364D36C2343D364136D47F6FF74A3431365136D43EA0E031E
:204D60001365536DAB435365536D33435365936D6FF3090393658B6B966D33439365D36D5A
:204D80006FF30903D365CB6BD66D3343D365136E23EA0C0313660B6C166E33431366936B48
:204DA00023F4004393634B6C966B33439363936923F47F0393618B6C966946EA0343936196
:204DC000936923F0FF039361CB6C966933439361936B23F4005393630B6D966B33439363EB
:204DE000936B23F4805393634B6D966B33439363936B23F4006393638B6D966B33439363DD
:204E0000936B23F480639363CB6D966B33439363936B23F4007393630B6E966B334393639B
:204E2000936B23F4807393634B6E966B33439363936B23F480439363896E936B194391633B
:204E400000210174084670BD704700000000000041F648100121C2F20040C0F83C12704728
:204E600010B504460068D0F80C14C9071CBFD0F808145FEAC1716ED12068D0F80C1489078A
:204E800044BFD0F808145FEA81716BD4A069C8B32268D2F8BC00D2F8C41008400104D2F868
:204EA000C010D2F8C82003D0636943F00103636110F4F81F02EA010003D0616941F00201FD
:204EC0006161C1071FD1810723D410F00C0F03D0616941F010016161C10622D4810626D4DF
:204EE00041062AD401062ED410F4F85F03D0606940F4007060616069002808BF10BD20461D
:204F0000FFF7A6FF10BD616941F0040161618107DBD5616941F00801616110F00C0FD7D1A6
:204F2000DAE7616941F0200161618106D8D5616941F0400161614106D4D5616941F0800134
:204F400061610106D0D5616941F48071616110F4F85FCCD1CFE70121C0F81014204600F02F
:204F6000B7F989E70221C0F810142046FFF76CFF8CE700000000000070B582B028B304465C
:204F8000407C0D4610B9204600F01AF903206074002001902068D0F8301441F08071C0F8BA
:204FA0003014D0F8300400F080700190019801F0E7FB06462068D0F80C14C90408D401F07E
:204FC000DFFB801B6428F5D936E0012002B070BD48F20362D0F83014CFF6FC721140C0F805
:204FE000301495E80E00D20242EA8101D0F8302441EA03411143C0F8301400210091D0F80B
:20500000301441F00101C0F83014D0F8300400F0010000900098012000F05EF901F0B0FB04
:20502000064600BF2168D1F80C04C00507D401F0A7FB801B6428F5D9032002B070BDD1F810
:20504000A000261D40F00600C1F8A000D1F8940020F00300C1F89400D1F894004CCE104357
:2050600040F6001240F00100C1F89400D1F8A400C0F23D0220F00300C1F8A400D1F8A4002F
:205080003043C1F8A400886820F0FF00886088681843886068682B68AE68002800FB02F296
:2050A00046F2A81004BF40F60012C0F23D0206F003065843B240B2FBF0F0D1F8182422F0D4
:2050C0003F02C1F81824D1F818241043C1F818040020C1F8C400C1F8C8000121A06160616B
:2050E000617402B070BD00002DE9F04F81B08146007C012803D1022001B0BDE8F08F9B465E
:2051000090468A460120DDE90A7489F8100001F037FB0646D9F800C0DCF87410C90706D1F4
:2051200001F02EFB801B6428F4D903203FE05A46BBF1030F28BF03225AB1D100631E002632
:2051400013F8015F0836B14205FA06F547EA0507F6D1BBEB0200CCF870701AD0224400BF5A
:205160000146042828BF0421561E00250B46012998BF01230024DF0016F8013FAB400835A8
:20518000AF4244EA0304F7D1401A0A44CCF87040E6D14FF4807148EA8A1001EB0B218AB2FA
:2051A0003FFA81F110430843CCF86C000020002189F8101001B0BDE8F08F000000000000BF
:2051C0007047000000000000027C012A01D1022070470268136B23F003031363136B194373
:2051E00011630021017408467047000000000000027C012A01D1022070470268D2F81C34C8
:2052000023F0C063C2F81C34D2F81C3443EA4161C2F81C14002101740846704700000000E0
:205220002DE9F04381B00446007C012803D1022001B0BDE8F083984616460F46DDF8209032
:205240000120207401F09CFA054600BF2068416FC90706D101F094FA401B6428F6D90320D1
:2052600007E046EA871141EA082141EA0941C16600200021217401B0BDE8F08300000000F0
:2052800082B00146007C012802D1022002B0704701200874002001900A68536843F00103E0
:2052A0005360536803F001030193019B0090D2F8043443F00803C2F80434D2F8042402F0B3
:2052C00008020092009A087402B07047000000007047000000000000B0B5044601F050FA12
:2052E00040F258010546C2F20041621C097818BF0C4400BF01F044FA401BA042FAD3B0BD58
:2053000083B070B593B0044617A804AD061DCDE917123C2128461993FBF70EF90396022CFF
:205320009DF85C301ED3601E002400BF3C2C2ED003990A1D0392096829550134A042F5D170
:20534000022C12D341F648100093C2F20040002100F50470292223460195FFF7C5FE38B3AC
:20536000012026E00024022CECD2012C11D141F648109DF81060C2F20040002100F50470D5
:2053800013220096FFF74CFF90B1012011E001200FE041F648100021C2F20040032200F5E0
:2053A000047000260096FFF73BFF08B1012000E0002013B0BDE8704003B070470000000031
:2053C00041F64810C2F20040D0F82C120020CCF24E00814208BF00F5D01070470000000002
:2053E00041F64811C2F20041D1F83422824218BFC1F834027047000080B541F648100023E1
:20540000C2F20040CCF24E03D0F8681100F5B470D1F8AC209A4208BF03F5D013C1F8AC3087
:20542000022103F0A1FB80BD83B08DF807009DF8070001460091082808D80099DFE801F0E9
:20544000050A0F14191E23282D00FFE74FF04040029027E00020CCF21A00029022E0002081
:20546000CCF2340002901DE00020CCF24E00029018E00020CCF26800029013E00020CCF24C
:20548000820002900EE00020CCF29C00029009E00020CCF2B600029004E00020CCF2D0005D
:2054A0000290FFE7029803B0704700000000000080B58CB00B900A91002001908DF8210072
:2054C0008DF822008DF823000B9809A900F0E0F8019807900390FFE70398022834D8FFE700
:2054E000039A09A8805C0A99895C41400DF1210081540399405C10B3FFE701208DF82700D7
:2055000000200290FFE70298072817D8FFE703990DF12100405C9DF82710084204D0FFE72E
:20552000079801300790FFE79DF8270040008DF82700FFE7029801300290E4E7FFE7FFE79C
:20554000039801300390C7E7079808B9FFE79BE007980B2840F08D80FFE70020ADF81400AF
:20556000ADF816000B9806909DF821109DF822209DF82300000440EA022008440490BDF8FD
:205580001600049A402101EA52410843ADF81600BDF81600BDF8121001F020010843ADF8CE
:2055A0001600BDF81600049A102101EAD2310843ADF81600BDF816000499082303EA913105
:2055C0000843ADF81600BDF816000499042202EA51310843ADF81600BDF81600DDF810C053
:2055E000022101EA1C3C40EA0C00ADF81600BDF81600DDF810C0CCF3C02C40EA0C00ADF85E
:205600001600BDF81400DDF810C003EA9C131843ADF81400BDF81400049B02EA531210434A
:20562000ADF81400BDF81400049A01EA12110843ADF81400BDF814000499C1F3C001084312
:20564000ADF814000699BDF8162031F81200BDF814C0012303FA0CF3584021F8120041F629
:20566000F061C2F20041D1F894090130C1F8940909E041F6F061C2F20041D1F898090130F6
:20568000C1F89809FFE7FFE70CB080BD000000008BB00A90099100200090ADF81A00ADF868
:2056A0001800ADF81600ADF81400ADF812000999087009994870099988700A9908910390CA
:2056C000FFE703987F2848D8FFE7BDF81A000899039A31F812104840ADF81A000020ADF838
:2056E0001E000121ADF81C100290FFE702980F2819D8FFE70898039930F81100BDF81C1023
:20570000084206D0FFE7BDF81E000130ADF81E00FFE7BDF81C004000ADF81C00FFE7029884
:2057200001300290E2E7BDF81E00C00780B1FFE7BDF81400039A4FF6FF71891A4840ADF841
:205740001400BDF8120003994840ADF81200FFE7FFE7039801300390B3E700200190FFE737
:2057600001980F281ED8FFE7BDF81A00C00778B1FFE7BDF818000199C1F10F014840ADF882
:205780001800BDF8160001994840ADF81600FFE7BDF81A004008ADF81A00FFE701980130DD
:2057A0000190DDE709998878BDF8122002F0400240EA4200887009998878BDF8142002F0F6
:2057C00040021043887009998878BDF8122002F020021043887009998878BDF81430102287
:2057E00002EA53021043887009998878BDF81230082202EA53021043887009998878BDF877
:205800001430042202EA93021043887009998878BDF81230022202EA93031843887009991E
:205820008878BDF81430C3F3C0031843887009994878BDF8123003F0040340EA431048701B
:2058400009994878BDF8143003F0040340EA0310487009994878BDF8123003F0020340EA83
:205860000310487009994878BDF8143003F0020340EAC300487009994878BDF8123003F019
:20588000010340EAC300487009994878BDF8143003F0010340EA8300487009994878BDF891
:2058A000163002EA93021043487009994878BDF81820C2F3C0021043487009990878BDF86E
:2058C000162002F0040240EA4210087009990878BDF8182002F0040240EA02100870099949
:2058E0000878BDF8162002F0020240EA0210087009990878BDF8182002F0020240EAC200A2
:20590000087009990878BDF8162002F0010240EAC200087009990878BDF8182002F00102A5
:2059200040EA820008700BB0704700000000000041F6F061C2F200410020C1F89409C1F825
:20594000980970470000000080B586B003900398B0F5806F04D3FFE701208DF8130041E02B
:20596000039880010290BFF34F8FEFF3108072B60590BFF34F8F0021C8F201016020087055
:20598000BFF34F8F02980022C8F202021070BFF34F8F0298000A1070BFF34F8FBDF80A007A
:2059A0001070BFF34F8FD0200870BFF34F8F62B6022040F6B83100F03FFBBFF34F8F0A20A2
:2059C00005F042F900F014F801909DF80400C00720B1FFE701208DF8130003E000208DF8B2
:2059E0001300FFE79DF8130006B080BD0000000080B582B00021C8F2010170200870BFF315
:205A00004F8F022005F020F9BFF34F8FEFF3108072B60190BFF34F8F4FF0004000788DF8B1
:205A20000300BFF34F8F62B69DF8030002B080BD41F6F060C2F20040D0F89409704700009D
:205A400041F6F060C2F20040D0F898097047000080B584B002900298B0F5803F04D3FFE7F5
:205A600001208DF80F0023E041F6F060C2F2004000F5116020F00700083001900298019979
:205A800000F086FA01980078FF2804D0FFE701208DF80F000CE001984078FF2804D0FFE7D1
:205AA00001208DF80F0003E000208DF80F00FFE79DF80F0004B080BD80B586B0049003918C
:205AC0009DF80C00400720B1FFE701208DF8170047E00498B0F5803F04D3FFE701208DF8E0
:205AE00017003EE041F6F060C2F2004000F5116020F00700083002900498039900F0F0F99E
:205B00000498029900F044FA03984FF4006105F037F8019001980299096A88421DD0FFE7E8
:205B200001980299496A884216D0FFE700200090FFE7009807280ED8FFE70398009A00EB9F
:205B40000220029901EB8201FFF7B2FCFFE7009801300090EDE7FFE7FFE700208DF81700DA
:205B6000FFE79DF8170006B080BD00000000000010B58AB0089008988821FAF7DDFC0020D6
:205B800004900790EFF3108072B60990BFF34F8F0520039005F034F804980022C8F20102C3
:205BA0000192902111700021C8F2020102910870BFF34F8F05F060F84FF0004000680790DC
:205BC000BFF34F8F0798089908700798000A089948700798000C089988700798000E0899E9
:205BE000C870022005F030F8DDF804C0029A03980499EC238CF800301170BFF34F8F32219A
:205C000000F01AFA049841F6F061C2F20041403106910590FFE705981D280DD8FFE74FF0F8
:205C20000040006806990860FFE7059801300590069804300690EEE7BFF34F8F62B6089AE5
:205C400041F6F060C2F20040016CC2F80510B0F84410089A518190F846008006002804D5C8
:205C6000FFE7089901200873FFE741F6F060C2F2004090F84600C006002804D5FFE7089984
:205C800001204873FFE741F6F060C2F2004090F846000007002804D5FFE70899012088734E
:205CA000FFE741F6F060C2F2004090F846004007002804D5FFE708990120C873FFE741F66D
:205CC000F060C2F2004090F846008007002804D5FFE7089901200874FFE741F6F060C2F2E5
:205CE000004090F84600C00720B1FFE7089901204874FFE741F6F060C2F2004090F8480069
:205D00008006002804D5FFE7089901208874FFE741F6F060C2F2004090F84800C006002839
:205D200004D5FFE708990120C874FFE741F6F060C2F2004090F848000007002804D5FFE787
:205D4000089901200875FFE741F6F060C2F2004090F848004007002804D5FFE708990120E3
:205D60004875FFE741F6F060C2F2004090F848008007002804D5FFE7089901208875FFE722
:205D800041F6F060C2F2004090F84800C00720B1FFE708990120C875FFE7089A41F6F0602C
:205DA000C2F200400090016E436ED0F868C0C2F820C0D3619161089AC16E036FD0F874C050
:205DC000D0F878E0C46F5463C2F830E0C2F82CC09362516290F88010089A82F83810B0F87D
:205DE0009010089AD163B0F89410089A1164B0F89610089A5164B0F89A10089A9164B0F894
:205E00009C10089AD164B0F8A010089A116590F8A410089A516590F8A5100909089A916514
:205E200090F8A51001F00F01089AD16590F8A610089A1166B0F8A710089A5166B0F8A910DC
:205E4000089A916690F8AB10089AD166B0F8AC10089A116790F8AE10089A516790F8AF1028
:205E6000089A916790F8B010089AD16790F8B1000899C1F8800008990020C1F884000898B5
:205E800000782C281ED1FFE708984078F12819D1FFE7089840794F2814D1FFE708988079EC
:205EA0004E280FD1FFE70898C07946280AD1FFE70898007A492805D1FFE708990120C1F8DC
:205EC000840009E041F6F061C2F20041D1F8C0080130C1F8C008FFE70AB010BD0000000028
:205EE00080B586B004900391EFF3108072B60590BFF34F8F039802900021C8F20101002026
:205F000000900870BFF34F8F0022C8F202021070BFF34F8F1070BFF34F8F04981070BFF31B
:205F20004F8F0498000A1070BFF34F8FBDF812001070BFF34F8F30200870BFF34F8F052079
:205F4000192100F079F80098BFF34F8F0190FFE70198FF2814D8FFE74FF000400068042169
:205F6000C8F200010A6802994A600860BFF34F8FFFE7019801300190029808300290E7E744
:205F8000BFF34F8F62B606B080BD00000000000080B586B004900391EFF3108072B60590A4
:205FA000BFF34F8F039802900021C8F20101002000900870BFF34F8F0022C8F2020210702F
:205FC000BFF34F8F08201070BFF34F8F04981070BFF34F8F0498000A1070BFF34F8FBDF8E2
:205FE00012001070BFF34F8F30200870BFF34F8F0520192100F020F800980190FFE7019818
:20600000042814D8FFE74FF0004000680421C8F200010A6802994A600860BFF34F8FFFE726
:20602000019801300190029808300290E7E7BFF34F8F62B606B080BD80B584B003900291A9
:20604000039804F0EDFDBFF34F8FFFE704F0D0FD01460020019049B9FFE740F61000C5F6AF
:2060600002000068C0F380100190FFE70198C00708B1FFE7EAE7BFF34F8F04F0B9FD50B1F1
:20608000FFE741F6F061C2F20041D1F88C090130C1F88C09FFE7BFF34F8F029804F0C0FDFF
:2060A000BFF34F8FFFE704F0A3FD01460020009061B9FFE740F61000C5F60200006800F084
:2060C0004001012080EA91100090FFE70098C00708B1FFE7E7E7BFF34F8F04F089FD50B106
:2060E000FFE741F6F061C2F20041D1F890090130C1F89009FFE704B080BD00000000000081
:2061000080B58AB0089007919DF81C00400720B1FFE701208DF8270082E00898B0F5803FFE
:2061200004D3FFE701208DF8270079E041F6F060C2F2004000F1400121F0070108310691E6
:2061400000F6C80121F007010831059100F5116020F00700083004900898079900F064F8C3
:2061600008980699FFF7BCFE00200390FFE703990020B0EBD12F11D1FFE70798039A805C60
:206180000699895C884204D0FFE701208DF8270046E0FFE7039801300390E8E7002002903E
:2061A000FFE7029807280ED8FFE70798029A00EB0220059901EB8201FFF76AFAFFE7029835
:2061C00001300290EDE707984FF4006104F0D8FC05994862059908620898059900F084F823
:2061E00008980499FFF7D4FE00200190FFE70198272811D8FFE70598019A805C0499895CB6
:20620000884204D0FFE701208DF8270008E0FFE7019801300190EAE700208DF82700FFE781
:206220009DF827000AB080BD80B588B006900591EFF3108072B60790BFF34F8F0598049020
:206240000021C8F2010180200870BFF34F8F0021C8F20201002002900870BFF34F8F0870A9
:20626000BFF34F8F06980870BFF34F8F0698000A0870BFF34F8FBDF81A000870BFF34F8F61
:20628000022004F0E1FC02980390FFE70398FF2811D8FFE70499086849684FF00042C2E97D
:2062A0000001BFF34F8FFFE7039801300390049808300490EAE7BFF34F8F0220019004F098
:2062C000C3FC01980022C8F2010210211170BFF34F8F4FF41671FFF7AFFEBFF34F8F62B630
:2062E00008B080BD0000000080B588B006900591EFF3108072B60790BFF34F8F059804901E
:206300000021C8F2010180200870BFF34F8F0021C8F20201002002900870BFF34F8F082038
:206320000870BFF34F8F06980870BFF34F8F0698000A0870BFF34F8FBDF81A000870BFF306
:206340004F8F022004F080FC02980390FFE70398042811D8FFE70499086849684FF00042E5
:20636000C2E90001BFF34F8FFFE7039801300390049808300490EAE7BFF34F8F0220019020
:2063800004F062FC01980022C8F2010210211170BFF34F8F4FF41671FFF74EFEBFF34F8F55
:2063A00062B608B080BD00008EB0002009900890FFE70898032843D8FFE708994FF040402F
:2063C00000EB81500C9000200790FFE707990020B0EB113F0AD1FFE707980C994A1C0C9214
:2063E0000870FFE7079801300790EFE7BFF34F8F08994FF0404000EB81500C900020069004
:20640000FFE706990020B0EB113F12D1FFE70C98411C0C9100789DF81810884204D0FFE7CC
:20642000099801300990FFE7FFE7069801300690E7E7BFF34F8FFFE7089801300890B8E774
:2064400000200590FFE70598032847D8FFE705994FF0404000EB81500B9000200490FFE786
:2064600004990020B0EBD12F0CD1FFE7049800EB00200B998A1C0B920880FFE70498023037
:206480000490EDE7BFF34F8F05994FF0404000EB81500B9000200390FFE703990020B0EB60
:2064A000D12F14D1FFE70B98811C0B910088039901EB012189B2884204D0FFE70998013072
:2064C0000990FFE7FFE7039802300390E5E7BFF34F8FFFE7059801300590B4E70020029005
:2064E000FFE7029803284ED8FFE702994FF0404000EB81500A9000200190FFE701990020E4
:20650000B0EB912F10D1FFE7019901EB012000EB014000EB01600A990A1D0A920860FFE786
:20652000019804300190E9E7BFF34F8F02994FF0404000EB81500A9000200090FFE70099BE
:206540000020B0EB912F17D1FFE70A98011D0A910068009A02EB022101EB024101EB026107
:20656000884204D0FFE7099801300990FFE7FFE7009804300090E2E7BFF34F8FFFE702982B
:2065800001300290ADE7099820B1FFE701208DF8370003E000208DF83700FFE79DF83700FE
:2065A0000EB07047000000002DE9F04F82B042F200420A27C5F602020B68904208BF09273D
:2065C000002B009700F0C08000F1264240F2040A02F1FF72C5F6000A4FEAB227009A092F23
:2065E0004FF0000438BF3A4600260127009209E00B68043633FA07F207F1010704F102044A
:2066000000F0A280A7F10108012202FA08FB13EA0B09EDD0D1F804E00EF00303A3F1010C85
:20662000BCF1010F12D80322D0F808C0A240CD682CEA0202A5402A438260CEF30015426819
:2066400022EA0B0205FA08F52A434260032B1FD00325C268A540022B22EA05028D6805FA8E
:2066600004F542EA0502C26012D16FF0030206F01C0502EA58020F23024403FA05FED2F8E6
:2066800020C00B692CEA0E0CAB4043EA0C03136203230268A3404D689A4305F00303A340F7
:2066A00015F4403F42EA03020260A1D044F2F44340F2084EC5F60203C5F6000E0F251A681A
:2066C00042F002021A601A6802F00202019228F00302019B06F00C0352F80EC09D402CEA36
:2066E000050C009D05FA03F343EA0C0342F80E304FF0B04EDEF800C04B684CEA0905DA029D
:2067000058BF2CEA09059A02CEF80050DAF800C04CEA090558BF2CEA09059A03CAF80050CC
:20672000DAF880C04CEA090558BF2CEA0905DB03CAF88050DAF87C2042EA090558BF22EA8D
:206740000905CAF87C5053E702B0BDE8F08F00000069084018BF012070470000000000002D
:20676000002A08BF09048161704700000000000041F20000C5F600400068000C7047000029
:206780004AF23420C2F20440006870470000000046F20051C5F602010A6810430860704727
:2067A00070B540F6000400251426C5F6020400BF10212046FFF7CCFF00284FF0320008BFE3
:2067C000013504F041FA013EF2D1A5F11400B0FA80F0400970BD000040F258004AF23421FD
:2067E000C2F20040C2F2044100780A68104408607047000000000000B0B582B041F6481425
:2068000044F2D045C2F2004440F2A4512046C5F60205F9F791FE2868C4F82C01286840011D
:2068200002D50120C4F830012868000102D50120C4F834012868C00102D50120C4F83801BB
:206840002868800102D50120C4F83C012868000202D50120C4F840012868400202D50120E5
:20686000C4F844012868800202D50120C4F8480128694EF6145440F000702861286946F2D9
:20688000045500F00070019001980120CEF20004C5F60205FFF77CFF54F8140C00F0F000B1
:2068A00070284FF0140008BF04202858C007F3D054F8140C00F0F000702818BF1035286868
:2068C00040F001002860BFF34F8FBFF36F8F0020C4F83C02BFF34F8FBFF36F8F2168890350
:2068E00011D4BFF34F8FBFF36F8FC4F83C02BFF34F8FBFF36F8F206840F400302060BFF31B
:206900004F8FBFF36F8F01F01BF801F0C5FA01F0F7FA01F011F801F0C7FA00F0FDFF01F0CA
